:10400000007F002075A800001DA7000071A8000017
:1040100071A8000071A8000071A8000071A800003C
:1040200000000000000000000000000071A8000077
:1040300071A800000000000071A8000071A8000035
:104040000000000000000000000000000000000070
:104050000000000000000000000000000000000060
:104060000000000000000000000000000000000050
:104070000000000000000000000000000000000040
:104080000000000000000000000000000000000030
:104090000000000000000000000000000000000020
:1040A0000000000000000000000000000000000010
:1040B0000000000000000000000000000000000000
:1040C00010B5054C237833B9044B13B10448AFF352
:1040D00000800123237010BDD002002000000000EA
:1040E0003049010008B5034B1BB103490348AFF346
:1040F000008008BD00000000D4020020304901000B
:10410000014808F031BD00BFF0020020084611460A
:104110000DF0AEBA08460CF049BD08460CF03EBDA5
:1041200040B10079031F012B03D9831E5842584127
:104130007047012070474FF6FF7399421FBF036815
:10414000CA0903EBC20301F07F011ABF586800EBF4
:10415000C1000020704711F0100108B505D00146DC
:1041600002F12C00FFF7E7FF08BD0846FCE710B599
:104170000446B4F5803F08460BD20921611808D2E5
:1041800003681B68984700B910BD0123C480838071
:10419000FAE70020F8E70A680B465268014618461D
:1041A000104770B5044616460D46084609B10DF095
:1041B000E5FAC4E900502672204670BD10B50A79B0
:1041C000042A044608D0052A09D0022A0FD1002269
:1041D000FFF7E7FF204610BD01220968F8E70B68EA
:1041E000DA880833C0E9003200232372F2E70023A3
:1041F000C0E900330123F8E7B2F5803FF8B5064681
:104200000F461546046807D2236809329B6820468A
:10421000984708B1C580F8BD236820465B683946D9
:104220009847012333710020F5E738B5C588044667
:1042300001F12C002946FFF77EFFA580206008B120
:10424000C388E38038BD38B5436A034400251D7137
:104250000446011D006808F058FD00B16562606AFF
:1042600038BD38B5436A01331F2B04460D4606D8C6
:10427000636A5A1C62621C440120257138BDFFF735
:10428000E2FF0028F4D00020F8E738B5002383606F
:104290004368044643B905681F202968FFF767FF94
:1042A00008B901232B71606038BD38B50D464168EF
:1042B000044649B18268CB889A4205D15200013246
:1042C0000068FFF799FF6060636823B1A268134438
:1042D000511CA1601D7238BD2DE9F0470379DA0742
:1042E00005460C4610D500688B68002263B19842E1
:1042F00032D183882168013B9BB2838023B9036854
:1043000042B31360FFF747FF2B79DB0608D52E88F1
:1043100004F12C003146FFF70EFFA38E0380A68622
:104320002B7913F0600F1CD02E884FF6FF7A04F122
:104330002C09564513D031464846FFF7FCFE21466E
:104340000746B0F80680FFF7C7FFA38E3B80A6861E
:104350004646EEE7A360D5E71A461B68C6E72E80FF
:104360006E8000232B71BDE8F08770B500240646EF
:104370002546B3689C4207D22146304608F0F7FC38
:10438000013455FA80F5F4E7A8B270BD08B509F01C
:104390007DF9003018BF012008BD1020FFF7F6BFDF
:1043A00008B50F2008F04EF907EE900AF8EEE77A0C
:1043B000B1EE047A67EE877A9FED037A87EE870A7B
:1043C00030EE000A08BD00BF00C07F4408B50E20D3
:1043D00008F038F907EE900AB8EEE77AF1EE047AC1
:1043E00027EE277ADFED096AC7EE267AB0EE047A67
:1043F00077EEC77A9FED067A87EE870AB5EEC00A98
:10440000F1EE10FAD8BF9FED030A08BD00C07F444B
:10441000A4703D3E0000000038B5094D094C2968E4
:10442000204602F021FEE96804F1090002F01CFEBA
:10443000296904F10C00BDE8384002F015BE00BF48
:10444000300000203A03002038B50D4B00241C70CA
:104450000C4B1C700C4B002205461A61DA601A6086
:10446000FFF7DAFF21460D2009F004F9AB682BB104
:1044700029460648BDE8384008F0F2BB38BD00BF09
:104480003803002039030020FC020020180300201C
:10449000FFEE007AB4EEE70AF1EE10FA10B504462A
:1044A00021D4F7EE007AB4EE670AF1EE10FAC8BF35
:1044B000B0EE670A0D4B1B5D0BB1B1EE400A0C4B21
:1044C00053F8243007EE903AF8EEE77A27EE800AA8
:1044D0000CF00EFB074BFDEEC07A53F8243017EEBC
:1044E000900A184410BDB0EE670AE3E724030020E9
:1044F0001800002030000020B5EEC00AF1EE10FADE
:1045000008B5DFED176A27D4B4EE660AF1EE10FAAB
:10451000C8BFB0EE660A134B1B5C0BB136EEC00A87
:1045200080EE266A104B53F82020104B53F82030B1
:104530009B1A07EE903A07EE102AF8EEE77AB8EEEB
:10454000C77AA7EE867AB0EE470A0CF0D1FAFDEEF4
:10455000C07A17EE900A08BD9FED050ADBE700BFA1
:1045600000003443240300205800002044000020B1
:104570000000000030B52DED048B85B009F09AF9EC
:10458000844B1B68C01A844B1B6898420DD9834921
:1045900001A808F034FB01A8FFF756FF01A808F0B6
:1045A000E3FA05B0BDEC048B30BDFFF7F6FE08B1B1
:1045B0007B49EDE77B4B7C4C197821700D2009F08D
:1045C00059F8237813B9FFF727FFEAE7774C784DBE
:1045D000D4ED008A94ED039A94ED048AF5EEC08A36
:1045E000F1EE10FA21DDDFED737AF4EEE78AF1EEF9
:1045F00010FA21DCB5EEC09AF1EE10FA6FDDDFEDB6
:104600006D7AB4EEE79AF1EE10FA15DCB5EEC08AD9
:10461000F1EE10FA6BDDDFED677AB4EEE78AF1EECA
:1046200010FA09DC00232B700EE0DFED637AF4EE64
:10463000E78AF1EE10FADDD52B782BB901232B7028
:1046400009F038F95D4B18602B78DFED5D9A002B8F
:1046500055D009F02FF9594B1B68C01A594B1B68EC
:1046600098424CD30023C4ED049AC4ED039AC4EDE0
:10467000009A2B70B0EE698AF0EE698AB0EE699A02
:10468000B0EE680A0020FFF703FF4F4C01464F4889
:1046900002F0EAFC94ED010A0120FFF72DFF01462C
:1046A0004B4802F0E1FC94ED020A0220FFF724FFE0
:1046B0000146484802F0D8FCB0EE490A0320FFF753
:1046C000E7FE0146444802F0CFFCB0EE480A042061
:1046D000FFF7DEFE0146414802F0C6FC61E7DFED70
:1046E000367AB4EEE79AF1EE10FAA5D48EE7DFED54
:1046F000327AB4EEE78AF1EE10FA93D59CE7F5EE44
:10470000C08AF1EE10FA1DD4F5EEC08AF1EE10FA6F
:1047100020DCB5EEC09AF1EE10FA25D4B5EEC09AC1
:10472000F1EE10FA28DCB5EEC08AF1EE10FA29D4C9
:10473000B5EEC08AF1EE10FAA2DD0720FFF726FEE3
:1047400028BB9DE70220FFF721FE0028DCD0DFED2B
:104750001C8ADEE70320FFF719FEDFED197A002837
:1047600018BFF0EE678AD4E70420FFF70FFE002899
:10477000D4D09FED139AD6E70520FFF707FE002857
:10478000F7D1D0E70620FFF701FE0028D0D09FED3B
:104790000C8A75E7340300206C0000200839010002
:1047A000193901003803002039030020FC020020E1
:1047B0001003002017B7D13817B7D1B81403002061
:1047C000000000002C000020040000203A0300201C
:1047D0003D03002040030020430300204603002047
:1047E0002DE9F047002504460E46A946A28C276A0B
:1047F000ABB29A420FD907EBC3089A46D8F8041017
:1048000019B1336830465B68984747F83A900135EC
:10481000C8F80490EAE70023A384BC424FF6FF7374
:10482000238507D0336839465B68304698470423B0
:104830002462E384BDE8F08738B505680446A068C3
:1048400028B10368A3602946FFF7A5FCF7E704F148
:104850000C002168FFF7C4FF204638BD30B50223A5
:1048600003710A7903461C1AE5B2AA4204D90D68FD
:104870002C5703F8014BF6E70023835430BDC0E901
:10488000001205228260012202737047C0E9001203
:1048900007228260012202737047036823B11A79EC
:1048A000062A01D118787047087870478B8C30B58C
:1048B000013B0D6A9AB205EBC204616849B1638895
:1048C00035F832509D4204D95D1C11EBC30165805F
:1048D00005D1002303604FF6FF73838030BD016074
:1048E00003EBC213F9E72DE9F3470E8D4FF6FF7383
:1048F0009E4205460C4617460CD0314604F1200076
:10490000FFF719FC038823852860AE80284602B093
:10491000BDE8F0878B8C53B16E463046FFF7C6FF7B
:10492000009B23B196E8030085E80300EEE7A28C24
:10493000E38C934217D1B3F5007F3FD05B009EB26A
:10494000236A3968A3424FEAC6022FD10B68384662
:1049500011469847804688B3202221460CF040F942
:10496000C4F82080E684B4F82480D4F820A008F1AC
:1049700001039BB2B3F5007FA3843B680CBF7F2685
:104980008026F1001B68384698470AEBC8090028C2
:1049900008BF00260023C9F8040021462AF8386021
:1049A0002846A9F80230FFF781FFAFE7D1F8088069
:1049B00038461946C04780460028D1D100232B60D5
:1049C0004FF6FF73AB80A1E737B50A6804460D4682
:1049D00068460C31FFF787FF009B4FF6FF7233B933
:1049E0000121297120462360A28003B030BD00213F
:1049F000DA801971BDF80420F4E737B50A68044677
:104A00000D4668460C31FFF76EFF009B43B901224B
:104A100023604FF6FF732A71A380204603B030BD98
:104A2000BDF804202360A280F7E707B503680822D9
:104A300003EBC10168460CF0D3F89DED000B03B009
:104A40005DF804FBFFFFFFFF2DE9F74F91F9003000
:104A50002B2B044632D02D2B31D10131012591F978
:104A60000020A2F13003DBB2092B01D92E2A28D174
:104A7000DFF868B28846002000214FF0993A4FF0E5
:104A80000A0EC4461CF9013BA3F13002D2B2092A36
:104A90001DD88B4508BF824520D30EFB01F3A0FB38
:104AA0000E0119440023D2B2DF43D6438F4208BF20
:104AB000864213D380185941E046E2E701310025D0
:104AC000CDE700232370204603B0BDE8F08F2BB95B
:104AD000E5B1B1F1004F08BF01280FD3764F002395
:104AE0004FF0FF368F4208BF864203F1010910D212
:104AF00000230A220BF07CFE4B46F3E702234042E0
:104B0000237061EB4101C4E90201DCE70323237058
:104B1000F9E7A3EB080707EB0806434618F901CBB2
:104B200032B2ACF13006F6B2092EF4D9BCF12E0F38
:104B300022D1C6460FF27819D9E900894FF00A0A46
:104B400073460EF1010E93F800C0ACF1300C5FFA21
:104B50008CFCBCF1090F0FD8894508BF8045EFD305
:104B6000A0FB0A6716EB0C000AFB017702F1FF3687
:104B700047F1000132B2E3E793F9006026F0200626
:104B8000452E66D193F901602D2E25D19F1C4FF043
:104B9000010C00264FF00A083B4617F901EBAEF175
:104BA000300E5FFA8EF9B9F1090F26D808FB06E638
:104BB000B318B3F59A7FEFDDBCF1000F13D0DFED32
:104BC0003F7A9FED3F7A002D18BFF0EE477A012320
:104BD0002370C4ED027A76E72B2E14BF5F1C9F1C56
:104BE0004FF0000CD5E700222DB1364B0421217087
:104BF000C4E9022367E7344BF8E7BCF1000F00D0AB
:104C0000764293F90030002B7FF45BAF164406F137
:104C100026034C2B24D8002908BFB0F5000F1FD263
:104C200007EE900A002EF8EEE77AD6BF274928490A
:104C3000764200237EB1F20742BFDAB201EB820274
:104C400092ED007A4FEA660648BF67EE877A013335
:104C5000F0E70026D5E7002DB9D0F1EE677AB6E788
:104C60000BF0EAF8002ECABF1A4B1B4B019380468B
:104C70008946DCBF01937642002786B1F3070BD546
:104C8000F9B201A8FFF7D1FE4046494653EC102B7C
:104C90000BF008F98046894676100137EDE715B12B
:104CA00009F10043994604232370C4E902890AE705
:104CB0009899999999990100FFFF0F000000000051
:104CC000000000800000F0FF0000F07F00380100CD
:104CD0001838010078380100303801009999991985
:104CE00070B5006878B1C4884B689C42F9D10D68F2
:104CF00000239C4207D9C218EE5692F9082096422A
:104D0000EFD10133F5E770BD2DE9FF4182684368BB
:104D1000032A04460D4603F1080319D8184600215A
:104D2000D7B2C61AF6B2BE4206D210F9016B002EF7
:104D300008BF41F00101F4E751B98DF80C10284685
:104D400001A9CDE90132FFF789FD04B0BDE8F0818A
:104D500000269E542768D4F808808DF80C6001A9BD
:104D600007F10800CDE90138FFF7BAFF68B94246FC
:104D700061683846FFF740FA23689A6802609860D5
:104D8000666005232B712860DFE783880133838009
:104D9000F7E72DE9F0418AB0064601A880E80E0049
:104DA000109F0B46002954D09DF80C5035B10422B9
:104DB0003271316028460AB0BDE8F081029C032CB4
:104DC00017D82A465FFA84FEA1EB030C5FFA8CFC2D
:104DD000E64507D911F901CBBCF1000F08BF42F03D
:104DE0000102F1E72AB901463046FFF737FD0125F8
:104DF000E0E707C8BE460DF11C0C5EF8088B04AB5B
:104E000083E807008CE8070061467046FFF768FFFB
:104E100030B1838801338380052333713060E6E746
:104E200041462046FFF7A3F910B901233B71C1E7C2
:104E3000079D00F1080200239C4203D0E956D1549B
:104E40000133F9E7044400232372BB680360B860B0
:104E5000E2E70D46AEE72DE9F0418AB001AC84E807
:104E60000E00109D0F4671B907914FF6FF73ADF814
:104E70002030079820B107A82946FFF7D6F90798F0
:104E80000AB0BDE8F0810488DDF80880214605F10C
:104E90002C00FFF750F9ADF818400590C0B1C38859
:104EA000ADF81A30012607AC0599D9B19EB120465C
:104EB000FFF784F9089A42450DD1079900239A42D9
:104EC00012D017F903C0C856844504D10133F6E760
:104ED0004FF6FF73E4E7294605A886F00106FFF7C1
:104EE000A4F9E1E70791C0E705AB93E8030084E884
:104EF0000300BEE770B58AB003AE86E80E00027903
:104F0000202A08BF044696E8070007AD18BF002412
:104F100085E80B0044B10E9B009395E80E002046F7
:104F2000FFF799FF0AB070BD2046FBE730B587B0A8
:104F30000323049301230D468DF81430039200914E
:104F400006AB044613E90E0005F13800FFF7D2FF67
:104F5000C4E90005204607B030BD30B587B0062350
:104F6000049301230D468DF814300392009106AB93
:104F7000044613E90E0005F13800FFF7BBFFC4E952
:104F80000005204607B030BD30B587B00823049334
:104F900001230D468DF814300392009106AB0446B0
:104FA00013E90E0005F13800FFF7A4FFC4E900057E
:104FB000204607B030BD30B587B00A2304930123E3
:104FC0000D468DF814300392009106AB044613E9A8
:104FD0000E0005F13800FFF78DFFC4E900052046FB
:104FE00007B030BD30B587B01423049301230D46BC
:104FF0008DF814300392009106AB044613E90E00BD
:1050000005F13800FFF776FFC4E90005204607B038
:1050100030BD38B504790A46054621460088FFF7B9
:105020009AF80C2C15D003D80A2C14D0002011E0CB
:105030001A2C14D01C2CF9D1D0E9002312F1004015
:1050400043F10001012908BF002834BF01200020DE
:1050500000E0012038BD2868C043C00FFAE7D0E95E
:10506000002300216FF00040994208BF90422CBFFE
:1050700001200020EEE7FFFF30B585B0014668460D
:10508000FFF7E2FC9DF80030013B032B48D8DFE836
:1050900003F00218242FDDED027A9FED257AF4EE5D
:1050A000C77AF1EE10FA3BDB9FED227AF4EEC77A75
:1050B000F1EE10FA34D8FDEEE77A17EE900A05B05B
:1050C00030BDDDE9020110F1004241F10003012B86
:1050D00008BF002A28BF0020F1E7DDE90201002314
:1050E0008B426FF0004208BF824238BF0020E6E7E3
:1050F000DDE902450022104B204629460BF058F905
:105100000028DCD008A3D3E90023204629460BF071
:1051100045F90028D3D0204629460BF073F9CEE795
:105120000020CCE7AFF300800000C0FFFFFFDF41AD
:10513000000000CFFFFFFF4E0000E0C1FFFFFFFFB8
:1051400038B505790A46044629460088023DFFF72E
:1051500002F81C2D65D8DFE805F02E6432340F64A8
:1051600064641164156437646464646464646464CE
:105170006464176422644C00207838BD206820EAFB
:10518000E070FAE72068F8E7D0E9000100238B42DD
:105190006FF0004208BF824238BF0020EDE7D0E93F
:1051A000000110F1004241F10003012B08BF002A69
:1051B00028BF0020E1E72046FFF75EFFDDE720681B
:1051C000FAE720680830F7E7D4ED007A9FED187A07
:1051D000F4EEC77AF1EE10FA23DB9FED167AF4EEC7
:1051E000C77AF1EE10FA1CD8FDEEE77A17EE900AB6
:1051F000C3E7D0E9004500220F4B204629460BF0BB
:10520000D7F80028B9D008A3D3E9002320462946BF
:105210000BF0C4F80028B0D0204629460BF0F2F875
:10522000ABE70020A9E700BF0000C0FFFFFFDF41A0
:10523000000000CFFFFFFF4E0000E0C170B5046822
:105240000E4654B1456820462946FFF7E2FE20B1DC
:1052500029462046FFF774FF70BD3068FCE72DE952
:10526000F041046814F1380690B003D1002010B06A
:10527000BDE8F081021D07CA07AB83E807000246BC
:105280000028F3D094F83C1011BB202184F83C1086
:105290004FF6FF7121876187079293E807000AADF7
:1052A00085E80700009495E80E003046FFF7D3FD2F
:1052B0000028DCD195E807000DAE86E807002146FE
:1052C00003A8FFF781FB039F2FB900252846CEE7EF
:1052D0002029E1D0CAE7214605A8FFF775FB059D07
:1052E000002DF2D0009496E80E003846FFF751FDED
:1052F0000028EAD0BDF81860FE80618FBDF81080EC
:105300004FF6FF73994207D004F12C00FEF713FF0C
:10531000A0F806806687D9E7A4F83880FAE770B568
:105320000E4686B00446FFF79AFFB36832682568D8
:10533000CDE9032300238DF81430064648B12946F1
:10534000FEF7CAFF009506AB13E90E003046FFF7E3
:1053500020FD206810B1007980F0010006B070BD1A
:1053600010B52DED028B0446B0EE408AFFF777FFB3
:105370002168044630B1FEF7AFFF0E23237184EDA0
:10538000008A0120BDEC028B10BD38B504460D46E5
:10539000FFF765FF2168044628B1FEF79DFF06234D
:1053A00023712570012038BD30B505790A4685B0D6
:1053B00029460446023D0088FEF7CDFE1C2D51D83B
:1053C000DFE805F02A5037390F5050501650195069
:1053D0003C50505050505050505050501E50235040
:1053E0003F00237800EE103AB8EE400A05B030BD19
:1053F00094ED000AF8E794ED000AB8EEC00AF5E76C
:10540000D0E900010BF05EF903E0D0E900010BF0F8
:1054100061F900EE100AE9E721466846FFF714FB40
:105420009DF80030013B032B1CD8DFE803F00F127E
:1054300015182168F1E721680831EEE794ED000ABC
:10544000D4E7D0E900010BF025F8E2E79DED020A70
:10545000CCE7DDE90201DAE7DDE90201D2E7DDE9C7
:105460000201F0E79FED010AC0E700BF0000000065
:1054700008B503683BB11A79120704D5416818468C
:10548000FFF792FF08BD91ED000AFBE7FFFFFFFF6A
:1054900030B585B001466846FFF7D6FA9DF8003072
:1054A000013B032B37D8DFE803F00216161EDDEDB3
:1054B000027AF5EEC07AF1EE10FA2CDB9FED1A7A43
:1054C000F4EEC77AF1EE10FA25D8FCEEE77A17EE83
:1054D000900A05B030BDDDE90201012908BF0028AE
:1054E00028BF0020F5E7DDE9024500220023204621
:1054F00029460AF05DFF0028EBD009A3D3E9002379
:10550000204629460AF04AFF0028E2D020462946D4
:105510000AF0A0FFDDE70020DBE700BFAFF300806B
:105520000000E0FFFFFFEF41FFFF7F4FFFFFFFFFA6
:1055300038B505790A46044629460088023DFEF73B
:105540000AFE1C2D54D8DFE805F01F5323250F5306
:1055500053531153135328535353535353535353C8
:105560005353175317533B00207838BD2068FCE78E
:10557000206820EAE070F8E7D0E90001012908BFBF
:10558000002828BF0020F0E72046FFF781FFECE766
:105590002068FAE720680830F7E7D4ED007AF5EEE6
:1055A000C07AF1EE10FA23DB9FED157AF4EEC77A9C
:1055B000F1EE10FA1CD8FCEEE77A17EE900AD4E769
:1055C000D0E9004500220023204629460AF0F0FEDB
:1055D0000028CAD008A3D3E90023204629460AF0B0
:1055E000DDFE0028C1D0204629460AF033FFBCE783
:1055F0000020BAE7AFF300800000E0FFFFFFEF41BB
:10560000FFFF7F4FF8B504680F465CB14668257907
:10561000208832462946FEF79EFD0C2D15D003D872
:105620000A2D15D0386817E01A2D16D01C2DF9D187
:10563000D0E90023002A73F10001F3DB002A73F1A3
:105640000103B4BF012300230FE02368002BE9DB33
:1056500031462046FFF76CFFF8BDD0E90023012B4F
:1056600008BF002A34BF01230023002BDAD0EFE764
:10567000F0B591B04C4B0A9305230B9301238DF8A1
:10568000303000900AAB0ECB06463830FFF732FCC4
:105690000146FEF745FDE8B1D1B10DA8FEF78EFD3C
:1056A0000D9D424928460CF05FF8414904462846C2
:1056B0000CF05AF880B1003418BF012464423D490F
:1056C00028460CF051F848B1631C08D111B0F0BD68
:1056D0000D46E6E7384DE4E70324F0E70424374AB3
:1056E000314606A8FFF750FC10A940F2DC5741F8FC
:1056F000347D06A8FFF7A2FD40F21353984250DD17
:105700002E4A314608A8FFF73FFC10A908A841F827
:10571000307DFFF793FD40F2A465A8420BDC274AD9
:1057200031460DA8FFF730FC10A90DA841F82C7DDB
:10573000FFF784FD0546224B224A43F824503146A8
:105740000DA8FFF70AFC002308A90DA88DF820304A
:10575000FFF7A3F81C4F1D4A387031461C4E0DA8A8
:10576000FFF7E4FB31460DA8FFF74CFF306008F06F
:10577000A1F8184B18603B78002BA7D0FEF70DFE60
:105780000028A3D101210D2007F074FF1248134B0C
:1057900004EB44040122294620441A7001F064FC01
:1057A00094E740F21455C6E7B0390100B63901005C
:1057B000B9390100BC390100FE390100BF390100CF
:1057C00030000020C839010038030020CF39010023
:1057D0002C030020340300203A030020390300206A
:1057E0002DE9F0472DED028BC94DCA4A8AB0044617
:1057F000014608A8FFF79AFB294608A8FFF702FF11
:10580000C54A2860214608A80AADFFF7A6FB002379
:1058100005F8103D08A82946FFF73FF8BF4BC04ADE
:1058200018700AAF214604A80026FFF7ADFB47F821
:10583000246D04A83946FFF71BFEBDEE008AB4EEC6
:10584000C80AF1EE10FA00F14381B54A2146284614
:10585000FFF79AFB0AA9284641F8206DFFF708FEDA
:10586000F5EE007AB4EEE70AF1EE10FA00F33381B8
:10587000214608A8AA4AFFF787FB0AA908A841F809
:105880001C6DFFF7F5FDDFF8D492A64A89ED000AFA
:10589000214604A8FFF761FBDFF8C482CDF804803D
:1058A000394604A8FFF7E4FDF3EE0E7AB4EEE70AFA
:1058B000F1EE10FA00F112819A4A21462846FFF7CC
:1058C0004CFB0AA9284641F8208DFFF7D1FDDFEDFA
:1058D000967AB4EEE70AF1EE10FA00F3FF80214663
:1058E00008A8904AFFF739FB0AA908A841F81C8DBF
:1058F000FFF7BEFDDFF86CA28C4A8AED010A214653
:1059000004A8FFF72AFB394604A8CDF80480FFF766
:10591000AFFDF3EE097AB4EEE70AF1EE10FA00F10A
:10592000E080824A21462846FFF717FB0AA928464D
:1059300041F8208DFFF79CFDDFED7D7AB4EEE70A9C
:10594000F1EE10FA00F3CD80214608A8774AFFF760
:1059500004FB0AA908A841F81C8DFFF789FD754AC8
:105960008AED020A214604A8FFF70EFB394604A877
:105970000196FFF77DFDB4EEC80AF1EE10FA00F1D2
:10598000B3806C4A21462846FFF7FEFA0AA928464A
:1059900041F8206DFFF76CFDF5EE007AB4EEE70AF2
:1059A000F1EE10FA00F3A380214608A8614AFFF740
:1059B000EBFA0AA908A841F81C6DFFF759FD5E4AE9
:1059C00089ED030A214604A8FFF7DEFA394604A848
:1059D0000196FFF74DFDB4EEC80AF1EE10FA00F1A2
:1059E0008980554A21462846FFF7CEFA0AA928465B
:1059F00041F8206DFFF73CFDF5EE007AB4EEE70AC2
:105A0000F1EE10FA79DC214608A84B4AFFF7BCFA00
:105A10000AA908A841F81C6DFFF72AFD474A89ED3D
:105A2000040A214604A8FFF7C6FA454904A8FFF76F
:105A3000E9FD632864D9414A21462846FFF7BBFAAD
:105A40003F492846FFF7DEFDB0F57A7F5AD8214658
:105A500008A83A4AFFF7AFFA394908A8FFF7D2FD7C
:105A6000384B394A1860214604A8FFF7BBFA4FF4B7
:105A70009676394604A80196FFF7C4FD632844D9F9
:105A8000314A21462846FFF7ADFA0AA9284641F8CF
:105A9000206DFFF7B7FDB0F57A7F65D8214608A8DD
:105AA000294AFFF79FFA0AA908A841F81C6DFFF7D9
:105AB000A9FD264B26491860264807F0EAF807F0AA
:105AC000F9FE254B18600AB0BDEC028BBDE8F087EB
:105AD000B0EE480AD7E6B0EE670AD4E6B0EE670A41
:105AE00008E7B0EE670A3AE7BDEE000A67E7B0EEF6
:105AF000670A64E7BDEE000A90E7B0EE670A8DE73B
:105B00006420ADE74FF47A70AAE76420D1E700BFC4
:105B10002C030020CF390100C839010038030020D0
:105B2000243901002D3901000000114334390100EE
:105B3000000016433B390100443901004D39010092
:105B4000DC3901006C000020583901002C000020D5
:105B5000FE3901001803002034030020FC0200205D
:105B60000000B442040000204FF47A70A1E700BFA7
:105B7000437E6BB9D0E9043293423DBF5A1C0261A7
:105B80001B784FF0FF3323EAE37303760123437658
:105B900090F91800704738B5044600252046FFF7F5
:105BA000E7FF0A2806DC092808DA48B10123237335
:105BB00000200AE00D2801D02028F7D16576EDE716
:105BC000237B002B14BF0220012038BD70B5054691
:105BD0004C1E002614F9010F50B12846FFF7C8FFEC
:105BE00028B194F90030834203D16E76F2E70220A7
:105BF00070BD0320FCE72DE9F04387B006460D4653
:105C0000FFF7B6FF002427462F28E3B20BDD392823
:105C10000BDC0134402C24D033197776D87730460A
:105C2000FFF7A6FFF0E72B28F3D0A0F12D02D2B2A8
:105C3000012AEED920F0200252B2452AE9D033449D
:105C4000002283F8202006F1200102A8FEF7FCFEC6
:105C50009DF80830013B032B62D8DFE803F03924BC
:105C6000043E3F23EBE7DDE90489B9F1010F08BFEA
:105C7000B8F1000F07D20A232B71C5F8008000206D
:105C800007B0BDE8F083F1696846FEF7B6FE009BF9
:105C90000BB90420F4E71A222A71BDF804202A80E7
:105CA000C3E90089EBE7DDE9048918F1004249F115
:105CB0000003012B08BF002A01D20C23DCE7F169A5
:105CC0006846FEF79AFE009B002BE2D01C22E3E719
:105CD0000E232B71049B2B60D1E7DDE90489494633
:105CE00040460AF0D7FB07460AF084F802460B4606
:105CF000404649460AF03EFB18B10E232B712F6037
:105D0000BDE7F1696846FEF778FE009B002BC0D026
:105D10001E222A71BDF804202A80C3E90089AEE75B
:105D20000320ADE710B550F8044B07C886B003ABAD
:105D300083E8070014F1380003D000940ECBFFF77E
:105D4000D9F806B010BDF8B5054616460C468F18B2
:105D5000BC4205D014F8011B2846FEF782FAF7E78B
:105D6000AB6A3344AB62F8BD38B5054608460C460D
:105D70000BF004FD214602462846FFF7E4FF38BD3C
:105D80002DE9F04186B00DF11604054616461F4672
:105D9000A046304639460A2200230AF029FD303257
:105DA00004F8012D0023304639460A220AF020FD6E
:105DB00006460F4656EA0703EBD1A8EB040221463C
:105DC0002846FFF7C0FF06B0BDE8F08138B50446AD
:105DD0000D46FFF7CDFEA8424FF0000004BF6076ED
:105DE000012038BD7F2837B50C4605D841B2204682
:105DF000FEF75BFA03B030BD00238DF8003000F0F1
:105E00003F03800982B263F07F031F2A8DF80130BF
:105E1000C3B20DD863F03F038DF802300DF10305D6
:105E200015F9011D0029E5D02046FEF73EFAF7E7F7
:105E3000C0F3891003F03F0363F07F030F288DF850
:105E40000230C3B205DC63F01F038DF8033001ADEF
:105E5000E6E703F03F03801163F07F0360F00F007B
:105E60008DF803308DF804000DF10505D8E7FFFF2C
:105E70002DE9F0478046FFF77BFE0024384E88F876
:105E80001940074625464046FFF772FE8742014605
:105E900088F819505CD010B90220BDE8F0875C2862
:105EA00052D14046FFF764FE0028F5D075283CD15A
:105EB00088F819504FF004094FF0000A4046FFF7E8
:105EC00057FE0028E8D04028CBBF20F02002303811
:105ED000373AC3B2C8BFD3B20F2B01D90320DCE7D6
:105EE00009F1FF3943EA0A1319F0FF091FFA83FA8F
:105EF00088F81950E2D10AF520539BB2B3F5806FB0
:105F000002D2CAF30904BEE70AF510539BB2B3F5F7
:105F1000806F3DBFCAF3090A4AEA842A0AF5803035
:105F200050464146FFF75EFFADE700239A579919A7
:105F3000002AD3D0904203F10203F7D191F9011066
:105F40000029CBD088F819504046FEF7AEF99AE701
:105F5000D8F80430002B0CBF042000209DE700BFC0
:105F6000EC39010010B50446FEF77BF9A36A18442A
:105F7000A06210BD2DE9F0410D46222116460446CF
:105F8000FFF7F0FFDFF850802E44B54215D015F929
:105F9000011B104B13F9027CAFB1023313F9032C30
:105FA0008A42F7D15C212046FFF7DCFFF9B20DE011
:105FB00041462046FFF7D8FEE7E722212046FFF7BB
:105FC000D1FFBDE8F0810029F2D0C9B22046FFF729
:105FD000C9FFDAE7F2390100E539010070B5002A9E
:105FE0001D4675F100030646144605DA2D21FFF71C
:105FF000B9FF644265EB450522462B463046FFF764
:10600000BFFE70BDFFFFFFFF2DE9F04F5BEC10AB53
:106010008BB007460D4610EE102A5B4610EE100AB4
:1060200059460AF0A7F930B9AF493846FFF79CFE48
:106030000BB0BDE8F08F00220023504659460AF00D
:1060400099F968B952465B465046594609F074FDC5
:1060500002460B46504659460AF08CF90028E3D117
:1060600000220023504659460AF08EF930B12D2106
:106070003846FFF777FF0BF100439B46012301935E
:106080002C460A2324B1019A5A43013C0192F9E7B4
:1060900091A3D3E90023504659460AF089F9002814
:1060A0006AD0DFF850924FF008084FF480764146EE
:1060B00004A8CDF81090FEF7B8FC52465B4651ECB0
:1060C000100B0AF06BF978B1884B0493414604A891
:1060D000FEF7ABFC5046594653EC102B09F0E2FE9C
:1060E000344482468B4624B218F1FF384FEA6606E4
:1060F000DDD2CDF80C8000220023504659460AF02C
:1061000061F900283DD076A3D3E9002350465946D3
:106110000AF044F9A8B300230293DDE90223A3EBBC
:10612000020919F0800F2CD10DF128086F4B48F8A7
:10613000183D49464046FEF778FC00226C4B51EC76
:10614000100B09F0AFFE52465B460AF03BF978B1FE
:10615000684B049349464046FEF767FC5046594653
:1061600053EC102B09F09EFEA41B82468B4624B2F2
:10617000029B76100133CFE708234FF48076039318
:10618000B9E7504659460AF065F90A220646034621
:10619000092B08D9B3FBF2F3013D0199B1FBF2F1F0
:1061A0006DB20191F4E7304609F002FE02460B465B
:1061B0005046594609F0BEFC80460198894609F0D0
:1061C000F7FD02460B464046494609F06BFE804605
:1061D00089460AF03FF9824609F0EAFD02460B467D
:1061E0004046494609F0A6FC0B46024609F0A4FCCD
:1061F0000AF030F9019B0AEB0008434508D8013644
:1062000094B1092E10D9013424B24FF000080126B0
:106210000A22B8FBF2F302FB138141B9002D06DD1F
:10622000013D98466DB2F4E74FF00008F0E70DF13C
:1062300026010A22B6FBF2F302FB1366303601F8A0
:10624000016D1E46002BF5D10DF12606721A384657
:10625000FFF779FDEDB108AA2B4611464FF00A0C65
:10626000013B5BB2581C09D0B8FBFCF00CFB10885A
:1062700008F1300802F8018D8046F1E7EDB2EB43FA
:106280004D1B2E2205F8012C19445A423846FFF7BF
:106290005AFD002C3FF4CCAE65213846FFF762FE74
:1062A000002CA5B205DA2D213846FFF75BFE6D42C2
:1062B000ADB231460A22B5FBF2F302FB135530357D
:1062C00001F8015D9DB2002DF5D1721A3846FFF735
:1062D0003AFDADE6AFF3008000000000D01263414C
:1062E000F168E388B5F8E43EE03901003038010098
:1062F00000002440783801002DE9FF410579064669
:106300000C4600882946FDF726FF0C2D00F09980E9
:1063100016D8042D00F0878006D8022D78D0032DE2
:1063200000F08880504998E0062D00F093807DD3DE
:106330000A2DF7D1326800232046FFF721FD1DE02A
:106340001C2D00F0848006D80E2D0ED01A2DE9D118
:10635000D0E90023F0E7202D35D0402D12D01E2D9E
:10636000E0D1092190ED000B05E0306809F042FD15
:1063700041EC100B06212046FFF746FEA06A04B050
:10638000BDE8F0815B212046FFF7ECFD35884FF634
:10639000FF76B54212D0E76A294607F12C00FDF7D7
:1063A000CAFE05463A462146FFF7A6FFED88B542EC
:1063B000EFD02C212046FFF7D5FDEAE75D212046EE
:1063C000FFF7D0FDDAE77B212046FFF7CBFD4FF644
:1063D000FF7735880126BD4218D0D4F82C80294695
:1063E00008F12C00FDF7A7FE054642462146FFF7BF
:1063F00083FFED88BD4206D0002E0CBF2C213A2130
:106400002046FFF7AFFD86F00106E4E77D21D6E7E1
:106410000022314601A8FDF7C4FEDDE90112204645
:10642000FFF7A8FDAAE701223168F3E73168CA88BF
:106430000831F4E731682046CA880831FFF783FC49
:106440009CE73268D3172046FFF7C8FD96E7D0E9EE
:106450000023F8E7337823B104492046FFF784FC92
:106460008CE70349F9E700BFE0390100FF3901007B
:10647000043A01002DE9F043B7B06B46002783E8EA
:10648000030002AD3946104602920B9706F001FC5C
:106490000FCD0CAC0FC40FCD0FC495E8030084E8FA
:1064A00003000CAE0FCE16ADDDE900890FC50FCE8F
:1064B0000FC594E8030085E8030016AE0FCE20ACAC
:1064C0000FC40FCE0FC495E8030020AE84E803008C
:1064D0000FCE2AAD0FC50FCE0FC594E8030085E897
:1064E000030020A83497FDF7AEFE16A8CDF8D4908F
:1064F000FDF7A9FEB8F1000F12D04A462AA940467E
:10650000FFF7FAFE04462AA8FDF79DFE0CA8FDF74A
:106510009AFE02A8FDF797FE204637B0BDE8F0834B
:1065200002492AA8FFF720FC349CECE7E03901007F
:106530002DE9F04F2DED028B9FB0854B0E9311AAE4
:1065400000238DF83C30109319928DF874304FF47D
:106550008022804B1A920B934FF6FF7201230EACF0
:1065600004260AA8ADF86C20ADF876200A940C96A3
:106570008DF83430FEF773FE0A99054620B1FDF719
:10658000ABFE754B2E712B60744B0B9303230C9356
:1065900001238DF83430724B0A940AA81E68FEF766
:1065A0005EFE0A99054620B1FDF796FE0A232B717F
:1065B0002E606C4A21460AA8FEF768F96A4B0AA8C1
:1065C0001978FEF7E2FE694B0B9306230C930AA899
:1065D00001230A948DF83430FEF741FE0A990546EE
:1065E00038B1FDF779FE40232B714FF6FF732B80F6
:1065F0006B800A9F00264FF00C094FF6FF7A5C4B28
:10660000985DFDF7C3FE8346E5B139460AA8FEF75B
:10661000DBF90A9AB2B1394610460192BDF82C80D6
:10662000FDF75AFE019A82F80490C2F800B069881A
:1066300051457FD007F12C00FDF77DFDA0F80680C5
:10664000A5F802800136062ED9D1FDF7A9FE494AE8
:10665000494D2146B0EE408A0AA8FEF717F9B0EE80
:10666000480A0AA8FEF77CFEFDF7B0FE434A214621
:10667000B0EE408A0AA8FEF709F9B0EE480A0AA867
:10668000FEF76EFEFDF789FE3D4B0B930A23014694
:106690000C930AA801238DF834300A94FEF775FE96
:1066A000AB68384A21460AA8002B46D0FEF7E7F827
:1066B00029460AA8FEF733FE334904A806F09FFADC
:1066C0001CABCDE9023402AB04AA93E80300FFF748
:1066D000D1FE04A8FDF749FE069B0546013B0022BA
:1066E00004A907A806F076FB284907A806F00DFBC9
:1066F0000A2229460AA806F0A1FA0AA907A806F064
:10670000F3FA0AA806F030FA214907A806F0FDFAC4
:1067100007A9204806F0F2F907A806F025FA04A810
:1067200006F022FA2046FEF787F81FB0BDEC028B78
:10673000BDE8F08FA5F8008082E7FEF7A0F80AA870
:10674000FEF78DFD0A990028B6D0FDF7C5FDB3E729
:10675000000000206D39010072390100CF390100BD
:106760002C0300207C39010039030020843901000A
:10677000D33901008B39010018030020933901003F
:1067800019390100193D0100FE3901009B39010052
:10679000A5390100180600202F280EDD392803DD59
:1067A0005E2803DD7A2803DC01207047402804DDE1
:1067B0005A28CCBF0020012070470020704770B5D8
:1067C0000446FDF762FD2046FFF7D2F927281ED0C8
:1067D00022281CD02046FFF7CBF90546FFF7DCFF47
:1067E00098B10026294620466676FDF75EFD2046D4
:1067F000FFF7BEF90546FFF7CFFF0028F2D1636827
:10680000002B0CBF0420002000E0032070BD2046B8
:10681000FFF72EFBFAE72DE9F04F5FFA83F98DB011
:1068200004460D46B9F1000F00F085800023437641
:10683000FFF7B1F9B8B97D212046FFF7C7FA88B94B
:106840000DF124082046FFF7BAFF60B92046FFF794
:10685000A2F9064638B93A212046FFF7B7FA28B917
:10686000032000E000200DB0BDE8F08FD4E9013234
:1068700013448DF82C601E72D4E901320833CDE93F
:106880000932E369009398E80E002846FEF7E3FA20
:10689000074600284BD1D4F81CB005A85946FEF78E
:1068A00093F8059E0EB90420DDE7594607A8FEF7C8
:1068B0008BF8079F002FF6D0BDF820A0A6F806A001
:1068C0006988BDF818304FF6FF7291422DD00BF158
:1068D0002C000393FDF72FFC039BC380A5F802A0B7
:1068E00031462046FEF710FA09F1FF334FF000025F
:1068F0003946204600F022F80028B4D12046FFF7A0
:106900004AF90028AFD17D212046FFF75FFA002821
:10691000A8D12C212046FFF759FA0028A0D0204604
:10692000FFF739F900288DD09DE72B80D6E7E16984
:10693000FDF7D2FCD8E7052095E7FFFFF8B506463E
:106940000C461F46FFF727F90546B8B93046FFF752
:106950000FF9662842D013DC272803D05B2817D014
:10696000222840D13046FDF790FC3046FFF780FAF0
:10697000054618B921463046FEF7C6F92846F8BD47
:10698000742822D07B2812D06E282CD1184921E0FF
:10699000402323714FF6FF73238063804FF0000282
:1069A0003B462146304600F029F80546E6E720231D
:1069B00023714FF6FF73238063804FF000023B4644
:1069C00021463046FFF727FFEFE7062323710949E9
:1069D000012323703046FFF7F9F8E6E70623237119
:1069E00025700549F6E721463046FFF704F9DCE754
:1069F000E0390100FF390100043A01002DE9F347B5
:106A0000DDB204460E46002D46D000234376FFF744
:106A1000C2F8A8B95D212046FFF7D8F978B94FF63A
:106A2000FF7A013DD4F81C9068464946FDF7CCFF3B
:106A3000DDF80080B8F1000F05D1042000E000204F
:106A400002B0BDE8F0877188BDF80470514521D0CF
:106A500009F12C00FDF76FFBC78077802B464FF0C4
:106A6000000241462046FFF769FF0028E8D1204692
:106A7000FFF791F80028E3D15D212046FFF7A6F942
:106A80000028DCD12C212046FFF7A0F90028C9D12D
:106A90000320D5E73780E0E70520D1E72DE9F0476F
:106AA000044600F10C090E688D68016898B000F189
:106AB00038074846FDF794FE0023D4F80080237180
:106AC0003544A06828B10368A3604146FDF763FB25
:106AD000F7E784F83C00CDE9004002908DF80C0007
:106AE0008DF819004FF00A034FF00002394668464E
:106AF000CDE904650794FFF721FF064640B99DF9EB
:106B000018302BB194F83C3013F0080F18BF03264F
:106B1000019818B1009B1968FDF73DFB258E276889
:106B2000B5B105F10055D4F82CA03B68013D0AEB46
:106B3000C5089B68B8F80220D8F80410D20038467F
:106B4000984728B1B8F80230C8F804002AF8353060
:106B5000E16A89450BD0228E638E934207D03B6851
:106B6000D2009B6838469847238EE06263863046A1
:106B700018B0BDE8F087FFFF70B598B005463E49F4
:106B800008A806F03CF808A9284606F01DF90646B4
:106B900008A805F0E9FF002E6CDB384908A806F0CC
:106BA0002EF808A9284606F0CDF8044608A805F0F6
:106BB000DBFF002C45D033460022294604A806F00E
:106BC00009F904A908A806F05AF82C4908A806F003
:106BD000ACF8014601A806F052F808A805F0C4FF79
:106BE00004A805F0C1FF264B08930BAB13934FF499
:106BF00080230024149329464FF6FF7308A88DF8CC
:106C000024400A94ADF854308DF85C40ADF85E3005
:106C1000FFF744FF10F0FF0F0DD108A9194A04A88F
:106C2000FDF72DFE04A8FFF77DF8049910B1FEF7DB
:106C3000F0F948B9002408A8FDF7FEFD01A805F009
:106C400093FF204618B070BD08A90E4A04A8FDF7AE
:106C500016FE04A8FFF766F80499044610B1FEF783
:106C60006FFA044601A8FDF780FBA4B2231A5C4228
:106C70005C41E0E70024E4E79B390100A83901000A
:106C800000000020AA39010030B599B00546FFF791
:106C900073FF08AC58B93149204605F0B0FF2046D3
:106CA000FDF7D2FB204605F05FFF19B030BD0BAAFF
:106CB0002B4B13924FF480220893149200234FF62B
:106CC000FF72294620468DF824300A93ADF85420EF
:106CD0008DF85C30ADF85E20FFF7E0FE10F0FF0F9E
:106CE0000AD0204904A805F08AFF04A8FDF7ACFBF0
:106CF00004A805F039FF1EE01B4B059304230693FF
:106D000004A801238DF81C300494FFF70BF8FDF75D
:106D100007FAB0B104A8FFF705F8014678B101A859
:106D2000FDF74CFA019D114928460AF01DFD50B9A6
:106D30002046FEF755FD2046FDF77EFDB5E70546EA
:106D4000F1E70B4DEFE70B4928460AF00DFD18B9A6
:106D50002046FEF78DFCEEE70749C3E7C038010087
:106D600000000020D13801006D390100DE3801003B
:106D7000FE390100E6380100F838010010B50C4C6E
:106D8000204600F06DF9E01C00F06AF9A01D00F04B
:106D900067F904F1090000F063F904F10C0000F058
:106DA0005FF904490448BDE8104005F028BF00BF62
:106DB0003A030020FE39010018030020014805F0C5
:106DC000D3BE00BF1803002038B54FF4E13124488A
:106DD000244D05F09DF80A2005F008FD01210D2045
:106DE00006F030FC00210D2006F044FC02211020AA
:106DF00006F028FC0024285D0221013406F022FC64
:106E0000062CF8D10821184800F00AFA0921174881
:106E100000F006FA0A21164800F002FA0B21154884
:106E200000F0FEF90C21144800F0FAF9FDF7F4FA2D
:106E30009FED120A0120FDF75FFB01460B4800F0B1
:106E400013F99FED0E0A0220FDF756FB0146084894
:106E500000F00AF906F02EFD094B186038BD00BF9E
:106E600018060020D33901003A0300203D0300201A
:106E70004003002043030020460300200000B442EA
:106E8000340300207FB52B4C2378BFF35B8FDB07E7
:106E90000DD4204608F02FFE48B12749274805F0B9
:106EA000AEFE204608F033FE254806F0A8FC254E2D
:106EB000224C214D304605F072F858B3304605F0AB
:106EC000CFF841B20A290CD11C4805F0A3FFA368F2
:106ED00013B12046FFF7D8FE2946204605F0D9FE1B
:106EE000E8E70D29E6D0A368B3F5007F03D220467A
:106EF00005F010FFDEE72946204605F0CAFE1249DC
:106F000001A805F07CFE01A8FDF79EFA01A805F096
:106F10002BFECFE70D4CFDF72DFB06F0CBFC2368D5
:106F2000C01A312804D906F0C5FC2060FFF700FB29
:106F300004B070BDEC020020FE390100F002002018
:106F400001410000180600200A3A01003003002029
:106F500010B5074C22781AB101232370002010BD10
:106F6000044804F05EF80028F6D14FF0FF30F6E751
:106F70008C0300204C0300202DE9F0412F4E337884
:106F8000FF2B07D02E4A182101FB0323D3E904234A
:106F90001B0413602B4C2C4D22682978DFF8A0804D
:106FA00000204FF0180C012782B392FAA2F3B3FA33
:106FB00083F30CFB03FED9B258F80EE0BEF1000FCC
:106FC0001ED0297000B12260182707FB0383D3E984
:106FD00004211E481160D96803F09AFF2A781C49E1
:106FE000327007FB02870868FB6803440B600123CB
:106FF00003FA02F2236823EA02032360BDE8F0816A
:1070000007FA03F322EA03020120CDE708B1297051
:107010002260104B104819680D4B00681A680A442A
:10702000824238BF811A002208481A6003F070FFBC
:10703000FF233370094B1B68DFE700BF700000209F
:107040009C03002094030020710000204C030020CA
:10705000BC0400208803002090030020840300204B
:10706000FF2303707047FFFF30B50478FF2C20D05A
:107070001048182202FB04056B688B4203D8AB68EA
:107080008B4228BF0B466243811883500A4ADFEDCA
:107090000B6AD2ED007AF8EE677A87EEA67A07EEF1
:1070A000903AF8EE677A67EE277AFCEEE77AC1ED60
:1070B000037A30BD9C0300209003002000409C46D2
:1070C0002DE9F0471F46494B2DED028B16461A68F5
:1070D0000C2A84B005468A46984605D1002004B0A3
:1070E000BDEC028BBDE8F087414B1C789946002C23
:1070F0003DD104A8214600F8014D03F0F1FD431CE9
:1071000035D09FED3C8A3C4B9DF80F200093F0EE6C
:10711000480AC3B2B0EE480A21460194374803F04A
:1071200085FE2146354803F012FF22460A213348E6
:1071300003F0E6FF314803F036FF304803F05AFF12
:107140002E4803F0CFFE07EE900A9FED2D7A2D4BCF
:10715000F8EE677A1860C7EE870A2B4B60EE880A54
:10716000FCEEE00AC3ED000A012389F8003099F82B
:107170000030002BB2D0254B33F83A40244B00228C
:107180004FF0180C0CFB02F0C15859BBD8F8001096
:107190002A7001310344C8F80010E0B2012101FA5D
:1071A00000F0C3E901675861260A1A4876013044A5
:1071B0001861194B01FA02F2196828460A4340F295
:1071C000DC511A60FFF750FF2B78FF2B86D0052289
:1071D0002146124801F00EFBFFF7BAFEB0FA80F02C
:1071E00040097CE701320C2ACCD1EDE7980300205E
:1071F000C004002000004842796F00004C030020CA
:1072000000409C469003002088030020183B0100AA
:107210009C0300200800044084030020841C0020FC
:107220004FF416634FF40872FFF74ABF014803F0AA
:1072300095BC00BF4C030020014803F045BF00BFD0
:107240004C03002008B506F0D7FA002008BD27201F
:107250007047704737B5FFF7FCFF01210D2006F09E
:10726000F1F900210D2006F005FA684607220321F6
:1072700008F0C0FBBDF800301C4CC3F3841301259B
:10728000684607220521E55408F0B4FBBDF800303C
:10729000C3F38413684607220621E55408F0AAFBCD
:1072A000BDF80030C3F38413684607220921E55472
:1072B00008F0A0FBBDF80030C3F384136846072232
:1072C0000A21E55408F096FBBDF80030C3F384139F
:1072D00007220B216846E55408F08CFBBDF800300E
:1072E000C3F38413E55403B030BD00BFA2050020F2
:1072F00030B5836A85B004468C4601ADABB193E8E6
:10730000070085E807006268117883F804C0E26A24
:107310009A6019601846626A9047A36A1BB195E8A3
:10732000070083E8070005B030BD2B46EBE700BF40
:1073300010B4EFF30383103B5BB203F1C001204AAA
:10734000204C52F821006FF3104042F8210054F80D
:107350002330D3E906218A421BD0186940B393F841
:1073600020400F2C0BD99968496840F82210D96940
:1073700001328A429A610CD05DF8044B7047072CA9
:1073800019D8996809798154D96901328A429A6178
:10739000F2D15B680C4993F903305DF8044B58094E
:1073A000012203F01F0302FA03F341F82030704773
:1073B00098684068DCE79C68A48820F81240D7E70A
:1073C000006000401005002000E100E0F0B5EFF3A0
:1073D0000383103B5BB203F1C0022F492F4C51F8DD
:1073E00022006FF3104041F8220054F8233058680F
:1073F000026A002A30D092F801C0DC695A69BCF1F7
:10740000010F17D094420FD0D96841B393F82000F0
:107410000F280AD80728986895BF895C31F81210A0
:107420000171818001325A61F0BD986851F82210D3
:107430004160F7E704F1FF3E724513D0016900296E
:10744000E0D090F9031016484D0901F01F010CFA25
:1074500001F140F82510D5E75A69DC69D2E7986850
:107460004160DFE790F903E00EF1C0064FEA5E10DD
:10747000800051F8267000F1604000F561400EF088
:107480001F0E0CFA0EF56FF3104741F82670C0F886
:1074900080510560B6E700BF006000401005002085
:1074A00000E100E010B4EFF30383103B5BB2324A1B
:1074B000324C03F1C00152F821006FF3104042F842
:1074C000210054F823008268D278920706D54268DA
:1074D000527A012A02D05DF8044B70475909284CB2
:1074E0000122203103F01F0302FA03F344F8213094
:1074F000BFF34F8FBFF36F8F436893F90230002BB8
:107500002FDB5909203103F01F0302FA03F344F87B
:107510002130BFF34F8FBFF36F8FD0E90114237871
:1075200091F902106FF386130029237014DB01F127
:10753000C00C114C4B099B0001F01F018A4003F164
:10754000604354F82C1003F561436FF3104144F885
:107550002C10C3F880211A605DF8044B0121FFF75D
:10756000C7BE82685DF8044B13786FF386131370FF
:107570000121FFF7BDBE00BF0060004010050020E4
:1075800000E100E070B5EFF30384103C314B64B2CE
:1075900053F82460736893F90230002B42DB5A09D8
:1075A0002D492032012003F01F0300FA03F341F8B4
:1075B0002230BFF34F8FBFF36F8FD6E9012392F9CB
:1075C00002101A7800296FF386121A7015DB01F188
:1075D000C00C224D4A09920001F01F0100FA01F18E
:1075E00002F1604255F82C0002F561426FF3104041
:1075F00045F82C00C2F880111160DA780021D5B26C
:107600001207D97021D4EB0712D405F01405142DFC
:1076100016D0124BC03453F824206FF3104243F8B5
:10762000242070BDB3681A786FF386121A70E4E7ED
:107630000421304605F01405FFF75AFE142DE8D159
:1076400008213046FFF754FEE3E705213046FFF7F7
:107650004FFED8E71005002000E100E00060004088
:10766000036A70B50446987800F07B0098700D4668
:10767000217841B32261E269E5601069002841D0B8
:10768000226982B1A378816800688E68E16803F09E
:107690000303013B22FA03F3002222619BB2B047AD
:1076A00080B9236A21789A7842F080029A7039BBB7
:1076B00094F802C00CF0030CBCF1020F1AD02A7827
:1076C000DA70002070BD94F802C0E0690CF0030E7F
:1076D0000069A2EB0E02226105EB0E02E2600028B7
:1076E000CED19A780CF0030C42F08002BCF1020F6C
:1076F0009A70E4D12A8842F47E420020DA8170BD7B
:10770000002070BD9A7842F080029A7070BD00BF70
:10771000036A91F801C09A7800B502F07B0E02F07E
:107720000B029A700022C2608878587010461A784E
:107730006CF301021A70CA789A7493F807C00A7839
:107740000CF0A30102F05C020A43DA7183F802E054
:107750005DF804FB10B5D0E90721002343608B706E
:1077600092F905202F49044650090123203002F0E8
:107770001F0203FA02F241F82020BFF34F8FBFF33C
:107780006F8FE26992F90B205009203002F01F023E
:1077900003FA02F241F82020BFF34F8FBFF36F8F3F
:1077A000E26992F907205009203002F01F0203FA23
:1077B00002F241F82020BFF34F8FBFF36F8FE269D1
:1077C00092F90920500902F01F02934000F12002B3
:1077D00041F82230BFF34F8FBFF36F8FE369DA6850
:1077E00022B1936810681B6A9847E3691B691BB153
:1077F0009A681868136A9847EFF31081012383F39E
:107800001088E369084A1C78D2F800014FF0004361
:10781000E3400343C2F80031D2F8003181F310880D
:10782000002010BD00E100E0006F0440F0B5846A64
:1078300085B005460F4694466E46B4B194E80F00F5
:1078400086E80F00EB691B7884F804C02360EB6ABC
:107850002046C4E902736B6A9847AC6A1CB196E88B
:107860000F0084E80F0005B0F0BD3446EAE700BF22
:107870008C46516830B4029C0D6880B91C609CF83D
:10788000010038B9E8784FF0010C0B346CF30510A7
:10789000E8701C60936810681B6830BC184704F1DE
:1078A0000C001860EBE700BF2DE9F0470D460978A2
:1078B0000323CB4013F0010301F1007218BF102322
:1078C000037002F5605283785201012161F30103D4
:1078D0000262A9696A6942620022C0E90A21C5619F
:1078E00083706B7882B0044623B98378022262F3F6
:1078F0000103837095F90B00594B95F80AC04209B2
:10790000203200F01F06012101FA06F643F822603A
:10791000BFF34F8FBFF36F8F524A534E00F1C00732
:107920004FEA0C1C52F827E06FF3104E42F827E0A4
:107930001F185FFA8CFC87F800C346F8204095F9C1
:10794000050095F804C04709203700F01F0E01FA22
:107950000EFE43F827E0BFF34F8FBFF36F8F00F1A8
:10796000C00703EB000852F827E04FEA0C1C5FFA4F
:107970008CFC6FF3104E42F827E088F800C346F8FD
:10798000204095F9070095F806C04709203700F018
:107990001F0E01FA0EFE43F827E0BFF34F8FBFF32F
:1079A0006F8F00F1C00703EB000852F827E04FEAA1
:1079B0000C1C5FFA8CFC6FF3104E42F827E088F83D
:1079C00000C346F8204095F9090095F808C047091A
:1079D000203700F01F0E01FA0EF143F82710BFF315
:1079E0004F8FBFF36F8F00F1C0074FEA0C1152F8B1
:1079F00027C003446FF3104C42F827C0C9B283F884
:107A00000013EA6846F8204072B153681B684FF4CF
:107A1000002143F8041B216A05310091E1692078B7
:107A2000FFF726FF0646B0B92A69FAB153681B680A
:107A30004FF0006143F8081B216A03310091E169AE
:107A40002078FFF715FF064680B1EB681BB19A68F6
:107A50001868136A9847304602B0BDE8F08700BF47
:107A600000E100E00060004010050020EFF310800E
:107A7000012383F31088984B2E78D3F800214FF020
:107A80000041F14022EA0102C3F80021D3F800319D
:107A900080F31088236AE06900229A701A715A7282
:107AA0009A72DA725A83297840F20722CA40D207C2
:107AB00044BF4022DA7406221A7722787AB1C1686C
:107AC000013A002900F0FE800126120391B23143F1
:107AD00041F006029A829A8A92B29142FBD1EA78E8
:107AE000A978D20042EA01126978032900F0D78010
:107AF000002914BFF221E221ED69D2B21A70997106
:107B00002A7B520002F002025A736A78A978002692
:107B10001E7295F800C0D201490101F02001D2B2D5
:107B20000A43ACF10201012940F2BD80D2B2DA7100
:107B30006A68917859701978567866F3010119705E
:107B4000D17899741278D97902F05C0201F0A3011E
:107B50000A43DA710027C4E90377C4E9057790F98D
:107B600005105E4E01F1C00E4A0956F82E809200B3
:107B700067F3104802F1604246F82E8002F5614238
:107B80004FF0010E01F01F010EFA01F1C2F8801151
:107B9000116090F90B1001F1C0094A0956F829A0AB
:107BA000920002F1604202F5614267F3104A01F06F
:107BB0001F0146F829A00EFA01F1C2F880111160E8
:107BC00090F9071001F1C0094A0956F829A092005E
:107BD00002F1604202F5614201F01F0167F3104AB1
:107BE00046F829A00EFA01F1C2F88011116090F94F
:107BF000091001F1C0004A0956F82090920002F1E4
:107C0000604267F3104946F8209002F561420CF09B
:107C1000030C01F01F010EFA01F14CF0700CC2F8D8
:107C20008011116083F802C06B8923814FF6FF78C1
:107C300043452DD0EFF310818EF31088284A136846
:107C40001BB92848C3704023C37013680133136005
:107C500081F31088218924480B0A1B0153FA81F112
:107C600050F8213023F0011323F4404343F0040380
:107C700040F82130EFF31081012383F3108813685B
:107C800013B11368013B13601368B3B181F310881B
:107C9000164B63600026304602B0BDE8F08742F024
:107CA0004002F22128E7BCF1020F08BF42F01002A7
:107CB000FF21D2B25970DA714CE70A4A8020D370A2
:107CC000D070E3E7C169097A1140090201F47061DB
:107CD00041F00106F9E600BF006F0440006000407B
:107CE0000C050020000D0440000804405549435392
:107CF0002DE9F04F1E46FF23B37033786FF38203F4
:107D00008BB033708023F370554B0992554A1B6A30
:107D100012680191C3F302618A40C3F30233DA406F
:107D2000514B07900021100A06920891059002918C
:107D30000093A2FB03BA099B009A93426EDA9DF866
:107D4000203003930027494B039ADD5DC5F34003C0
:107D5000C5F3800504932B43934256D1444B33F82B
:107D60001780079B03FB08F8069BB3FBF8F2541E31
:107D7000FF2C4AD802FB08F91DE0059BB9FBF3F381
:107D80007F2B03FB00F040D90028B8BFFF30001262
:107D9000A0F5C330A0380028009AB8BF4042824204
:107DA00040DC029BF370337843F00403A9EB08092D
:107DB000337054B3013C4A464FEAE9735846514682
:107DC00008F0C6FC019A002AD7D1A0F5C333A03B26
:107DD000002B009AB8BF5B429A4216DD0093234BFA
:107DE000B470DA5D3378C2F3000161F3861304994D
:107DF00061F3041365F3C30333707378C2F3C102F4
:107E000062F301037370019B029301370D2F9AD126
:107E1000089BF3B1009B099A93421DDC00200BB034
:107E2000BDE8F08F0293114B049AD95D337800902E
:107E3000C1F3000060F3861362F3041365F3C30318
:107E400033707378B470C1F3C10161F301037370CF
:107E5000A7E7012308936EE703200BB0BDE8F08F7E
:107E600000E001409C050020A0860100503C01007C
:107E7000603C0100F0B5EFF30383103B5BB203F10C
:107E8000C001344A344C52F821006FF3104042F8DC
:107E9000210054F82300C3691B6913B1036913B1AE
:107EA000F0BD036983B9D0E90824937803F07F0318
:107EB000002143F004039370C160002CF0D0BDE8B2
:107EC000F0408022FFF7B2BC05785DB3066AF18A04
:107ED000C1F30421A9421ED28478C2681F4F04F066
:107EE000030E74460BE092F800C086F80FC0013113
:107EF0001B1B2244A942C0E903230CD25BB1BEF193
:107F0000020FF0D1B2F800C04CEA070C1FFA8CFC4B
:107F1000A6F80EC0EBE732796FF3C7123271002B6F
:107F2000BED1C0E7827802F003010229C1680BD0FC
:107F3000046A0D78E57002F003029B1A0A44C0E956
:107F40000323002BACD1AEE70C88056A44F47E44D1
:107F5000EC81F0E7006000401005002000FEFFFF0C
:107F600010B582B0EFF30383103B5BB203F1C001A5
:107F7000574A584C52F821006FF3104042F8210044
:107F800054F82340E369DB6813B1A369002B49D19E
:107F900022894FF6FF739A4275D12278236AF2B193
:107FA000D98AC80612D01B8AC3F308030193A369B8
:107FB000FBB9636A2BB1042201992046FFF736FC16
:107FC00022782AB1236AD98AC906E8D1BE221A7159
:107FD00023894FF6FF72934231D102B010BDA178D0
:107FE00001F003010229DED05B790193A369002B24
:107FF000DFD0A278606902F0030201A908F0F0FD69
:10800000D4E90521A37803F003031A44C91AC4E98B
:10801000052129B9636A1BB101222046FFF706FC3E
:108020002278CEE7636A0021C4E90511002BD4D081
:108030000122204602B0BDE81040FFF7F7BB1A0A44
:108040001201254952FA83F351F8232022F001123C
:1080500022F4404242F0040241F82320EFF3108260
:10806000012383F310881D4B196811B11968013978
:1080700019601B681BB91A498020CB70C87082F345
:10808000108802B010BDEFF31081012383F3108834
:10809000124B1A681AB91248C2704022C2701A688C
:1080A00001321A6081F3108822890B49130A1B01DF
:1080B00053FA82F251F8223023F0011323F44043A3
:1080C00043F0050341F82230236A227867E700BFB6
:1080D0000060004010050020000804400C0500204E
:1080E000000D044010B5EFF30384103C0B4B64B259
:1080F00053F82400D0E90821937803F07B039370B0
:1081000019B102220021FFF791FB054BC03453F84F
:1081100024206FF3104243F8242010BD10050020E6
:108120000060004010B5EFF30384103C194B64B2BB
:1081300053F82400037843B9837803F00303022B38
:1081400003D0036A5979C9B203E0036A198AC1F3FB
:10815000080193F804C01CF0100F0CF0380206D090
:1081600093F81CC01CF0010F08BF42F0400293F8C6
:1081700004C00CF0C70C83F804C0436A0BB1FFF7CE
:1081800055FB054BC03453F824206FF3104243F8DD
:10819000242010BD100500200060004030B5436A67
:1081A00085B004468C4601ADABB193E8070085E885
:1081B00007006268117883F804C0A26A9A601960A7
:1081C0001846226A9047636A1BB195E8070083E866
:1081D000070005B030BD2B46EBE700BF10B4EFF34E
:1081E0000383103B5BB203F1C001144A144C52F8F4
:1081F00021006FF3104042F8210054F823305A69EF
:10820000D9698A4206D2D3E90240A8B1805CE07005
:1082100001325A618A4202D05DF8044B70471A69F4
:10822000002AF9D19A685DF8044B937803F07B0338
:1082300043F0040393707047E070E9E7006000408A
:108240001005002010B4EFF30383103B5BB203F181
:10825000C001174A174C52F821006FF3104042F842
:10826000210054F823305A69D9698A4206D2D3E9E9
:108270000240D0B1805CE07001325A619A698A4252
:1082800007D2986819694079541C9C618854D3E9D5
:108290000621914206D19A68937803F03B0343F09C
:1082A000040393705DF8044B7047E070E4E700BF8F
:1082B000006000401005002010B5EFF30384103C6F
:1082C0000A4B64B2012153F824008268937803F0CA
:1082D00003039370FFF762FFC034054B53F824206B
:1082E0006FF3104243F8242010BD00BF100500209A
:1082F0000060004010B5EFF30384103C0C4B64B2F7
:108300004FF0840C53F8240083689A7802F003023B
:108310009A701A7983F804C00421FFF73FFFC03434
:10832000044B53F824206FF3104243F8242010BD6F
:10833000100500200060004003685969A1B190F861
:108340002D3070B5044603F0FF0563B98A68038CCD
:1083500096680868A1692A46B047E269C4E90852EC
:10836000012384F8333070BD704700BF70B5866B51
:1083700082B004460B466D463EB396E8030085E89E
:108380000300E26B3371236832605A6912B194F8CA
:108390002D10A1B19B6913B194F82D2052B9636BD4
:1083A00030469847A36B1BB195E8030083E80300B0
:1083B00002B070BD9A68186813699847EFE7936830
:1083C00010681B6998472368E4E72E46D9E700BF89
:1083D000EFF30383103B5BB2044AC03352F823101F
:1083E0006FF3104142F82310704700BF0060004057
:1083F00070B5EFF30383103B5BB2614AC03352F8B0
:1084000023106FF3104142F82310EFF30383103B66
:108410005C4A5BB252F823402269137BC3F300002D
:10842000DB072CD494F82C3094F82A10994216D0FB
:1084300094F82D1009B1022B41D02046FFF77CFFA4
:10844000236994F82820DA7094F82B2094F82C30C3
:10845000013A013384F82B2084F82C3070BD94F855
:10846000333003F0FF053BBB236A93BB94F82E30F7
:1084700063B352210123D17284F8303070BD94F877
:108480002D308BB194F8313073B9636AA169527998
:10849000CA54D4E9082394F82E10013A0133C4E9F0
:1084A000082379B12269E4E70020012154232062E6
:1084B00084F82F10D37270BD84F8330070BD52233E
:1084C000D37270BD23695422DA7270BD5423D37203
:1084D00070BD94F82D1041B9616AA069013B405C00
:1084E0000131C4E90831D07070BD94F83110002911
:1084F0002ED0216884F831504869002838D0896925
:10850000002935D0E069022832D98E68831E0868B8
:10851000B668F42191709BB2A2692946B0472268DF
:10852000E3695269916810688E68023B9BB22A46E3
:108530002946B047E36922690220023BC4E90803E7
:10854000012184F833100023FF209372D070CBE711
:10855000636AA1695279CA54D4E90832013B0132F5
:10856000012BC4E90832226904D0FF20D070BBE798
:10857000012BE8D12023FF209372D070B4E700BF15
:10858000006000401005002010B582B0EFF30383B7
:10859000103B374A5BB252F823000269D37A6FF37B
:1085A000C303D37290F82F30ABBB90F82A1003F0BE
:1085B000FF0C90F82C3099421BD1036A5BB990F8FC
:1085C0002D1090F83040002914BF02210321A4B3DC
:1085D000D372FFF7CBFEEFF30383103B5BB2254A68
:1085E000C03352F823106FF3104142F8231002B049
:1085F00010BDB3B9012929D090F829C00021D1724A
:1086000082F803C090F82B200133013A80F82B2028
:1086100080F82C30DFE7F023D3720121FFF7A6FEAC
:10862000D9E790F82D4004F0FF016CB1022BE5D1A1
:1086300090F829C04CF0010CE0E7F023D372937856
:1086400003F0CF039370C4E78C46D7E70190FFF7A0
:1086500073FE019890F82A30012B05D190F828C0BC
:10866000026990F82C30C9E7026990F82C30C3E712
:108670001005002000600040F0B583B0EFF30384E4
:10868000103C154B64B253F82450EF68BFB16A68D0
:108690002B6992F90D20121B18BF01226E46C3B13F
:1086A00093E8030086E803001A706A695A60184666
:1086B000B8472B691BB196E8030083E80300074B1A
:1086C000C03453F824206FF3104243F8242003B041
:1086D000F0BD3346E8E700BF100500200060004011
:1086E000EFF30383103B5BB20649074A51F82310AE
:1086F0000120C033087252F823106FF3104142F882
:108700002310704710050020006000400B0A1B0179
:10871000044853FA81F150F82130C3F3400300209C
:108720001370704700080440C8B2012383404AB95F
:108730001A040B0A5B0103F1804303F58023002038
:108740009A6070479AB2F4E738B50488002C4DD08F
:1087500043680021043303EBC40040F202450C4699
:1087600040F2034C40F2044E0FE0624530D153F822
:10877000042C02F0B852B2F1807F14BF41F0020124
:1087800044F002040833834211D01A88AA42ECD183
:1087900053F8042C02F0B852B2F1807F03F10803C1
:1087A00014BF41F0010144F001048342EDD1C943FB
:1087B000CDB2012002F014F80D4B93F8BB24144302
:1087C0002C4083F8BB440120BDE8384001F0D8BFFD
:1087D0007245D7D153F8042C02F0B852B2F1807F21
:1087E0000CBF44F0040441F00401CBE7FF25E0E7AF
:1087F00000E0014070B584B002AB012668460C462B
:108800001546ADF80C100292ADF800600193FFF729
:108810009BFFEFF3108286F310881D490B681BB98C
:108820001C48C3704023C3700B6801330B6082F394
:108830001088EA034FEA1423E4B219D41B01164A44
:10884000234442F82350EFF31082012383F310886E
:108850000B6813B10B68013B0B600B681BB90D492A
:108860008020CB70C87082F31088002004B070BDE7
:1088700004EB0310084A52F820606FF3104642F8E8
:10888000206025F4803642F820601B01D7E700BF46
:108890000C050020000D04400008044070B5C36AB8
:1088A00084B004468C46164601AD9BB193E80700A0
:1088B00085E8070083F808C0226B1846C3E9002644
:1088C000A26A9047E36A1BB195E8070083E80700B6
:1088D00004B070BD2B46EDE78268012370B580F8C7
:1088E00020300226B323D37180F8216053790446E7
:1088F0006FF300035371C2690D46FFF7CFFFA36802
:10890000DE705A7942F001025A7194F82120012A4E
:1089100016D094F8212002B170BD052DFCD194F839
:108920002320002AF8D194F821201AB95A7A02F0AB
:10893000F3025A72BF210122D97184F8232070BD3D
:10894000042DECD0082DE4D1E9E700BF30B583B0A9
:10895000EFF30383103B5BB2454AC03352F8231058
:108960006FF3104142F82310EFF30383103B5BB227
:10897000404A52F8234094F82230B3B9A368012248
:1089800084F82220DA7CD2B28DF805209DF80520EB
:1089900012F0010F5A7A14BF02F0F70202F0F3024C
:1089A0005A72AC22DA7103B030BD94F820304BB962
:1089B000A3681B7A13F0080F204614BF0821042176
:1089C000FFF78AFF2269A2B9A368D97CC9B28DF8E2
:1089D00006109DF80610197941F0100119711979E6
:1089E00041F008011971197962F30411197103B08A
:1089F00030BDA369A1689A4209D0E268C97C581CBD
:108A0000A061D154E3690133E36103B030BD0225B5
:108A100084F821504B79E2696FF300034B712046D3
:108A20000621FFF73BFFA3682169DD705A7942F008
:108A300001025A7191B9DA7CD2B28DF807209DF803
:108A400007201A7942F010021A711A7942F00802CE
:108A50001A711A7961F304121A71A4E7A269E16824
:108A6000DB7C501CA0618B54E3690133E3619AE71E
:108A7000006000401005002038B5EFF30383103B81
:108A80005BB2244AC03352F823106FF3104142F80E
:108A90002310EFF30383103B5BB21F4A52F82340CD
:108AA00094F8203093B194F8213003F0FF0263B9B9
:108AB000A369216999420ED0E269E068A168C05CAF
:108AC000887401330132C4E9063238BD05212046DD
:108AD000FFF702FFE7E723680E4993F90E3003F131
:108AE000C000002B51F8205062F3104541F820508F
:108AF00009DB5A09094803F01F030121603201FA1A
:108B000003F340F82230A268D37943F04003D371D5
:108B100038BD00BF006000401005002000E100E00B
:108B200038B5EFF30383103B204A5BB252F8234081
:108B3000A1680B795807C3F3800217D5CA796FF380
:108B40008612C023CA7101E0013B02D0CA795206E5
:108B5000FAD4EFF30383103B5BB2154AC03352F8EB
:108B600023106FF3104142F8231038BD022584F81A
:108B700021504B7962F300034B71E26907212046D3
:108B8000FFF78CFEA168CD704B7943F001034B7168
:108B900094F82130002BD1D1A369E269E068013259
:108BA000C05C88740133C4E90632C7E710050020B1
:108BB0000060004010B582B0EFF30383103B3E4AE3
:108BC0005BB252F8230083685A7A91074DD1D1B233
:108BD00011F00C0F3CD0012280F8242090F82120C5
:108BE000012A65D0016982699142C26988BF02F198
:108BF000FF324FF0030188BFC2614FF0000EA02486
:108C0000DC7180F820E080F822E093F805C06EF374
:108C1000000C83F805C090F82440002C43D1DF24D9
:108C20001C709F241C7000240223C46180F8213032
:108C3000FFF734FEEFF30383103B5BB21F4AC033F0
:108C400052F823106FF3104142F8231002B010BD08
:108C5000CA06EFD5DA7CD2B28DF807209DF807203E
:108C6000DA7902F0EF02DA71E4E70022A02180F85D
:108C70002420D97180F8202080F82220597962F3CD
:108C80000001597190F8241081B9DF219F221970D9
:108C90001A7000210223C26980F82130C1610121CC
:108CA000FFF7FCFDC6E783F809E0BCE75A72F0E77E
:108CB000C2690221A1E700BF10050020006000404A
:108CC00030B5836B83B004460A466D46A3B193E882
:108CD000030085E80300E16B1A71626B19601846A6
:108CE0009047A36B1BB195E8030083E803000023C2
:108CF00084F82B3003B030BD2B46ECE703690268E3
:108D00002DE9F04F1F241C705F241C70DF241C70A1
:108D1000546A55682279564EDFF8608142F0E002CD
:108D20001A74E27842F0E0025A74A278120102F05A
:108D3000700242F008029A7022786478012A0CBF0F
:108D40000522042242EA4402D2B2DA70494A95422C
:108D50000CBFF72277225A710027B3229F71DA7174
:108D600091F9112091F80DC0B4184FEA0C1C5FFA6C
:108D70008CFC84F800C302F1C00548F822003E4C88
:108D80004FEA521E54F825904FEA8E0E67F31049B1
:108D90000EF1604E44F825900EF5614E012502F06B
:108DA0001F0205FA02F2CEF88021CEF8002091F9D8
:108DB0000F2006EB020E02F1C0098EF800C348F83E
:108DC00022004FEA521E4FEA8E0E54F829B00EF1DF
:108DD000604E0EF5614E02F01F0205FA02F267F3D3
:108DE000104B44F829B0CEF88021CEF8002091F93C
:108DF000102006EB020E02F1C0098EF800C348F8FD
:108E000022004FEA521E54F829B04FEA8E0E0EF19E
:108E1000604E0EF5614E02F01F0267F3104B44F8EE
:108E200029B005FA02F2CEF88021CEF8002091F99F
:108E30000E100E444A0986F800C348F8210001F1DB
:108E4000C00001F01F018D4054F82010920002F183
:108E5000604267F3104144F8201002F561424FF080
:108E60009F0AC2F88051156083F800A0BDE8F08F1A
:108E700000E100E040420F000060004010050020CB
:108E800010B483B0EFF30383103B5BB2484AC033A6
:108E900052F823106FF3104142F82310EFF30383CD
:108EA000103B444A5BB252F8233093F82D20BAB9F4
:108EB0009A69022A1A699EBF117941F04001117125
:108EC000D969012917D0D27CD2B28DF807200121AF
:108ED0009DF8072083F82D1003B05DF8044B704710
:108EE000DA69002AF8D0032A0ED0022A4ED0012ACD
:108EF00021D019690DE0117941F01001117111793A
:108F000041F008011171DEE719690A7942F0400267
:108F10000A711A6A5869C97C8154D3E90721013161
:108F2000013AC3E90721002AD6D119690B7962F306
:108F300086130B71D0E793F82A1089B319681E4C79
:108F400091F90F104809203001F01F0102FA01F1D8
:108F500044F82010BFF34F8FBFF36F8F1969C879A2
:108F600040F08000C871087940F01000087108795D
:108F70004FF0040C6FF3C300087181F801C0487909
:108F80006FF30000487183F82C20C2E719690A7951
:108F900042F010020A710A7942F008020A71B8E739
:108FA00019694A7A082002F0F7024A724870B0E75D
:108FB000006000401005002000E100E0EFF30383B3
:108FC000103B5BB2354AC03352F823106FF31041A7
:108FD00042F82310EFF30383103B5BB2304A52F8A0
:108FE000232092F82730002B37D192F829309BBBF1
:108FF000D36910B4002B42D11069C1796FF3C71146
:10900000C023C17101E0013B02D0C179C909FAD185
:109010001368224A93F9103003F1C001002B52F873
:1090200021406FF3104442F8214009DB5A091D4CDE
:1090300003F01F030121603201FA03F344F82230E8
:10904000C3795DF8044B43F04003C37170470229B4
:1090500009D192F8300030B9704792F826100329F0
:1090600092F82810F3D0106992F824C080F812C04A
:109070000131013B82F8281082F827307047D2E98D
:109080000404116A013B645C84740131C2E9073154
:10909000002BB2D05DF8044B704700BF0060004069
:1090A0001005002000E100E010B4EFF30383103B53
:1090B0002B4A5BB252F8233093F829201AB193F867
:1090C0002720012A47D0DA69D2B11969CA796FF32A
:1090D0008612C023CA7101E0013B02D0CA79520650
:1090E000FAD4EFF30383103B5BB21E4AC03352F84D
:1090F00023106FF3104142F823105DF8044B7047C2
:1091000093F82A10F9B11968174C91F90F10480912
:1091100020304FF0010C01F01F010CFA01F144F86E
:109120002010BFF34F8FBFF36F8F1969C87940F0DC
:109130008000C87104204870487962F300004871CB
:1091400083F82CC0C2E719694B7A082203F0F703B1
:109150004B724A70BAE793F83020002AB3D1B4E7D3
:10916000100500200060004000E100E038B5EFF39A
:109170000383103B4B4A5BB2E02152F82340236942
:109180005A7A5972D506D0B202F003011FD55A7827
:10919000520648D4E269012184F82B10002A5ED0DF
:1091A00000252168DD712046FFF7A8FD94F8261000
:1091B000A2692369E56184F82810226284F82C50A2
:1091C000B322DA7101212046FFF77AFD12E000296F
:1091D000E0D101071BD594F82B20002A48D194F840
:1091E0002910B322002914BF02210321DA7120467D
:1091F000FFF766FDEFF30383103B5BB22A4AC033EF
:1092000052F823106FF3104142F8231038BD94F840
:109210002C20002AEED04207ECD594F82B20012117
:10922000002AE4D1DBE70029B4D15A785506C2F30D
:109230008011CED584F82B105A7A216802F0F702FB
:10924000496A5A72082058700A78012A0CBF032212
:109250000222DA705A7942F001025A71CAE794F890
:109260002C20002A9CD194F82B20002AA8D097E724
:10927000E2696AB1002294F82600A169E26184F8EB
:109280002800216284F82C20B322DA710121AEE794
:1092900094F82C20002AEDD194F82B20002AF3D04A
:1092A000E8E700BF100500200060004010B582B064
:1092B000EFF30384103C164B164964B253F8242094
:1092C00050790B5C03F00303032B0FD0C03451F82B
:1092D00024306FF3104341F82430936823B1D268EF
:1092E000CDE900206846984702B010BD936823B1CD
:1092F000D268CDE9002068469847064BC03453F841
:1093000024206FF3104243F8242002B010BD00BFA8
:1093100010050020006000400346D3E9022300202E
:10932000936070470346D3E90223002053607047DF
:10933000D0E90123D26930B4D2E9011444F00044E9
:10934000D0685C61D2E9045440F0004041F0004133
:109350009861196100205D629C6230BC704700BF5B
:1093600010B443681A788368032A13D84C1E9C668D
:109370001AB94908013959659965DA6AD20705D4DD
:10938000C2685C664FF4AA011964DA6000205DF8D7
:10939000044B70470C469966EFE700BF002800DADF
:1093A000704710B400F16043114C03F561430901AB
:1093B000C9B283F8001344F820200E4900F1C0021E
:1093C00000F01F0C400951F82240800000F160407D
:1093D00000F561406FF31044012341F8224003FA85
:1093E0000CF3C0F880315DF8044B0360704700BF98
:1093F000100500200060004070B5836984B0044609
:109400008C46164601AD9BB193E8070085E807003E
:1094100083F804C0E2691A609E601846626990474A
:10942000A3691BB195E8070083E8070004B070BD8D
:109430002B46EDE730B4D0E9012310785A6E0C4D7D
:109440000C4C032898BF01328A60D86A2A6A2368C4
:10945000C2F3026C03FA0CF302F00702C0F3C3502C
:10946000D340C3400122002030BC4B600A707047DB
:1094700000E001409C05002090F800C0486EBCF15F
:10948000030F98BF01300AB1824227D310B4019C68
:10949000496BE40754BF01F01F01C1F30441BCF163
:1094A000030F09D9090981F0010172B9E9B9022252
:1094B0005DF8044B5A60704701F00C01A1F1040102
:1094C000B1FA81F14909002AF0D0824201D3002982
:1094D000EDD103225DF8044B5A607047BCF1030FD5
:1094E00098BF02F1FF321A6070470028DFD0F0E722
:1094F0002DE9F0470B7C0D46012101FA03F2C26011
:10950000920716BF002201740274D5E9052103F504
:10951000800303F5F0631B0242610022EE6945609F
:10952000C0E9062184B004468360EFF31080012374
:1095300083F31088854B297C0229D3F8081134BFA6
:109540006FF020076FF040073940C3F80811D3F8D7
:10955000083180F31088A3686F684FF425411960C3
:10956000DA62DA639A642A78297A032A4FEAC151C7
:1095700007F1FF3C00F0D58084BF41EA0241BC46C0
:10958000D6E9068ED9624FF0004119610020596179
:1095900099614FF0FF315862039098620291C3F8CD
:1095A0001C80C3F820E0D6F82C80C3F868C0C3F84C
:1095B00064C0002A40F0A080790801390291404639
:1095C00001224FF0030C5965996500285DD095F88C
:1095D00000E0B76A002F71D0B97897F803900906B8
:1095E00041EA097197F8049041EA09419963B96821
:1095F000C3F88C10002965D0012148B997F81C9058
:1096000097F81BA04FEA496949EA4A2948EA09083C
:10961000C3F8881040B996F8211096F82000490741
:1096200041EA403148EA01084FF4AA01BEF1010FB6
:10963000196402D10021D9641965E168D960C3F8C1
:109640003480C3F830C01A63697C95F91200224651
:10965000FFF7A4FE96F8221096F924002246FFF7A1
:109660009DFE96F8231096F925002246FFF796FEF8
:109670002FB1397897F901002246FFF78FFE344B5E
:109680002360002004B0BDE8F0873178F9B995F87F
:1096900000E0B17800299CD0F778BEF1020F4FEAC4
:1096A000071141EA87113FD04BD903273943B76AE5
:1096B00048EA014848F08078002F8DD19F63C3F8B5
:1096C0008870A7E7F968003918BF012195E795F878
:1096D00000E07178BEF1020F4FEA81194FEA0117DD
:1096E00024D029D9032148EA010848EA090848EAB0
:1096F000070848F48078CCE7012A19D00090194671
:10970000EA68606802ABFFF7B7FEDDE90210020409
:1097100042EA006242F0030CA368F06A42F00102E0
:1097200051E741F480312BE70927BFE70921DAE748
:1097300040464FF0030C46E7002914BF09210621DB
:10974000D1E7002F14BF09270627AFE7006F0440B9
:109750005450470030B4436893F91220DB69002A63
:1097600011DB51092E4D02F01F0C2031012404FAA7
:109770000CF445F82140BFF34F8FBFF36F8F294999
:10978000002441F8224093F92420002A11DB5109DA
:10979000234D02F01F0C2031012404FA0CF445F88B
:1097A0002140BFF34F8FBFF36F8F1E49002441F854
:1097B000224093F92520002A11DB5109184D02F0AF
:1097C0001F0C2031012404FA0CF445F82140BFF3AA
:1097D0004F8FBFF36F8F1349002441F822409B6ADB
:1097E000A3B193F90130002B10DB03F01F045A09D9
:1097F0000121A14020320A4C44F82210BFF34F8FC0
:10980000BFF36F8F074A002142F823108268C168B6
:109810000023036030BC184691605363704700BF5B
:1098200000E100E01005002030B4EFF30383103BAB
:109830005BB2184A184C03F1C00152F821006FF3D3
:10984000104042F8210054F82300446894F800C006
:10985000BCF1010F15D1D0E90254AC600024AC6416
:10986000EC642C6552F8215064F3104542F8215005
:109870005A090A4903F01F0360320CFA03F341F856
:109880002230436923B1002230BC1146FFF7B4BD3A
:1098900030BC7047006000401005002000E100E08F
:1098A0001E4B10B4C3600B7803F001034370EFF359
:1098B000108C012484F31088194BD3F8082122F46A
:1098C0008012C3F80821D3F808318CF31088EFF325
:1098D000108C84F310884278D2B9C468237962F37B
:1098E000861323718CF310884A684B78D278C46849
:1098F000D201DB01D2B2DBB26271A3710123E37149
:109900000A780270074B43605DF8044B00207047F3
:10991000C26813796FF3C7131371E3E700E00540E2
:10992000006F044000434144C3684278002023F89C
:1099300012107047EFF31083012282F310884278EF
:10994000C1683AB90A7942F040020A7183F310887B
:10995000002070470A7942F080020A7183F3108870
:1099600000207047EFF31081012383F310884278C1
:1099700042B9C068037962F38613037181F31088DA
:1099800000207047C26813796FF3C713137181F316
:1099900010880020704700BFEFF3108C012383F381
:1099A0001088437873B9C268117963F38611117115
:1099B000117A63F3861111728CF3108800234360CF
:1099C00018467047C3681A796FF3C7121A711A7A6A
:1099D0006FF3C7121A72EFE7F0B5076A8BB006464D
:1099E00067B3BE468C46BEE80F006C460FC4BEE8A7
:1099F0000F000FC49EE8030084E80300BCE80F00DA
:109A00003D460FC5BCE80F000FC59CE803008EE87B
:109A10000300F36938469847336A6BB1EE469C46BB
:109A2000BEE80F00ACE80F00BEE80F00ACE80F0086
:109A30009EE803008CE803000BB0F0BD0F46E8E79A
:109A400030B58BB0EFF30383103B5BB22E4AC033CB
:109A500052F823106FF3104142F82310EFF3038301
:109A6000103B5BB2294A52F8235000212822684655
:109A700007F0DAF86C6894F84D380020DBB284F80F
:109A80004D08ADF80430B4F84218C1F30012C9060D
:109A900038D543F02003ADF80430022394F853285E
:109AA00084F8533894F8523803F01F03D2B2E11807
:109AB00084F8532891F8202860F3820281F8202846
:109AC0002A681268009269466A6A039328460492DB
:109AD000FFF782FFB4F84238DB0611D52B681A690C
